{
  "contractName": "Cars",
  "abi": [
    {
      "constant": true,
      "inputs": [
        {
          "name": "",
          "type": "address"
        }
      ],
      "name": "carsIds",
      "outputs": [
        {
          "name": "",
          "type": "uint256"
        }
      ],
      "payable": false,
      "stateMutability": "view",
      "type": "function"
    },
    {
      "constant": true,
      "inputs": [
        {
          "name": "",
          "type": "uint256"
        }
      ],
      "name": "cars",
      "outputs": [
        {
          "name": "ownerAddress",
          "type": "address"
        },
        {
          "name": "vinNum",
          "type": "string"
        },
        {
          "name": "status",
          "type": "bytes32"
        },
        {
          "name": "manufacturedYear",
          "type": "uint256"
        },
        {
          "name": "startMilage",
          "type": "uint256"
        },
        {
          "name": "currentMilage",
          "type": "uint256"
        },
        {
          "name": "createdAt",
          "type": "uint256"
        },
        {
          "name": "updatedAt",
          "type": "uint256"
        }
      ],
      "payable": false,
      "stateMutability": "view",
      "type": "function"
    },
    {
      "inputs": [],
      "payable": false,
      "stateMutability": "nonpayable",
      "type": "constructor"
    },
    {
      "anonymous": false,
      "inputs": [
        {
          "indexed": false,
          "name": "id",
          "type": "uint256"
        }
      ],
      "name": "newCarRegistered",
      "type": "event"
    },
    {
      "anonymous": false,
      "inputs": [
        {
          "indexed": false,
          "name": "id",
          "type": "uint256"
        }
      ],
      "name": "carUpdateEvent",
      "type": "event"
    },
    {
      "constant": false,
      "inputs": [
        {
          "name": "vinNum",
          "type": "string"
        },
        {
          "name": "status",
          "type": "bytes32"
        }
      ],
      "name": "registerCar",
      "outputs": [
        {
          "name": "",
          "type": "uint256"
        }
      ],
      "payable": false,
      "stateMutability": "nonpayable",
      "type": "function"
    },
    {
      "constant": false,
      "inputs": [
        {
          "name": "manufacturedYear",
          "type": "uint256"
        },
        {
          "name": "startMilage",
          "type": "uint256"
        },
        {
          "name": "currentMilage",
          "type": "uint256"
        }
      ],
      "name": "updateCar",
      "outputs": [
        {
          "name": "",
          "type": "uint256"
        }
      ],
      "payable": false,
      "stateMutability": "nonpayable",
      "type": "function"
    },
    {
      "constant": true,
      "inputs": [
        {
          "name": "id",
          "type": "uint256"
        }
      ],
      "name": "getCarById",
      "outputs": [
        {
          "name": "",
          "type": "uint256"
        },
        {
          "name": "",
          "type": "string"
        },
        {
          "name": "",
          "type": "bytes32"
        },
        {
          "name": "",
          "type": "address"
        },
        {
          "name": "",
          "type": "uint256"
        },
        {
          "name": "",
          "type": "uint256"
        }
      ],
      "payable": false,
      "stateMutability": "view",
      "type": "function"
    },
    {
      "constant": true,
      "inputs": [],
      "name": "getOwnProfile",
      "outputs": [
        {
          "name": "",
          "type": "uint256"
        },
        {
          "name": "",
          "type": "string"
        },
        {
          "name": "",
          "type": "bytes32"
        },
        {
          "name": "",
          "type": "address"
        },
        {
          "name": "",
          "type": "uint256"
        },
        {
          "name": "",
          "type": "uint256"
        }
      ],
      "payable": false,
      "stateMutability": "view",
      "type": "function"
    },
    {
      "constant": true,
      "inputs": [],
      "name": "isRegistered",
      "outputs": [
        {
          "name": "",
          "type": "bool"
        }
      ],
      "payable": false,
      "stateMutability": "view",
      "type": "function"
    },
    {
      "constant": true,
      "inputs": [],
      "name": "totalCars",
      "outputs": [
        {
          "name": "",
          "type": "uint256"
        }
      ],
      "payable": false,
      "stateMutability": "view",
      "type": "function"
    }
  ],
  "bytecode": "0x60806040523480156200001157600080fd5b5062000040600060206040519081016040528060008152506000620001d9640100000000026401000000009004565b50620000c67333333333333333333333333333333333333333336040805190810160405280600881526020017f56313233343535360000000000000000000000000000000000000000000000008152507f5374617475733100000000000000000000000000000000000000000000000000620001d9640100000000026401000000009004565b506200014c7311111111111111111111111111111111111111116040805190810160405280600881526020017f56313233343535370000000000000000000000000000000000000000000000008152507f5374617475733100000000000000000000000000000000000000000000000000620001d9640100000000026401000000009004565b50620001d27322222222222222222222222222222222222222226040805190810160405280600881526020017f56313233343535380000000000000000000000000000000000000000000000008152507f5374617475733100000000000000000000000000000000000000000000000000620001d9640100000000026401000000009004565b50620005a4565b6000806000808673ffffffffffffffffffffffffffffffffffffffff1673ffffffffffffffffffffffffffffffffffffffff1681526020019081526020016000205490506000811415156200022d57600080fd5b6001805490506000808773ffffffffffffffffffffffffffffffffffffffff1673ffffffffffffffffffffffffffffffffffffffff168152602001908152602001600020819055506000600180548091906001016200028d9190620003e9565b9050610100604051908101604052808773ffffffffffffffffffffffffffffffffffffffff16815260200186815260200185815260200160008152602001600081526020016000815260200142815260200142815250600182815481101515620002f357fe5b906000526020600020906008020160008201518160000160006101000a81548173ffffffffffffffffffffffffffffffffffffffff021916908373ffffffffffffffffffffffffffffffffffffffff1602179055506020820151816001019080519060200190620003669291906200041e565b5060408201518160020155606082015181600301556080820151816004015560a0820151816005015560c0820151816006015560e082015181600701559050507f56ee9ac180e8be7a2f9c9788403247e268158e3fee1a11ed46a1d3326f7cd919816040518082815260200191505060405180910390a180925050509392505050565b8154818355818111156200041957600802816008028360005260206000209182019101620004189190620004a5565b5b505050565b828054600181600116156101000203166002900490600052602060002090601f016020900481019282601f106200046157805160ff191683800117855562000492565b8280016001018555821562000492579182015b828111156200049157825182559160200191906001019062000474565b5b509050620004a1919062000530565b5090565b6200052d91905b808211156200052957600080820160006101000a81549073ffffffffffffffffffffffffffffffffffffffff0219169055600182016000620004ef919062000558565b60028201600090556003820160009055600482016000905560058201600090556006820160009055600782016000905550600801620004ac565b5090565b90565b6200055591905b808211156200055157600081600090555060010162000537565b5090565b90565b50805460018160011615610100020316600290046000825580601f10620005805750620005a1565b601f016020900490600052602060002090810190620005a0919062000530565b5b50565b610e7c80620005b46000396000f3fe60806040526004361061008e576000357c0100000000000000000000000000000000000000000000000000000000900463ffffffff168063214e563c1461009357806322366844146100be578063445a7db0146100ed5780636464c5ef146101505780638154ab0f146101b557806385a4a657146102b8578063f7746e361461039e578063fd1b5158146104af575b600080fd5b34801561009f57600080fd5b506100a861058e565b6040518082815260200191505060405180910390f35b3480156100ca57600080fd5b506100d361059b565b604051808215151515815260200191505060405180910390f35b3480156100f957600080fd5b5061013a6004803603606081101561011057600080fd5b810190808035906020019092919080359060200190929190803590602001909291905050506105e4565b6040518082815260200191505060405180910390f35b34801561015c57600080fd5b5061019f6004803603602081101561017357600080fd5b81019080803573ffffffffffffffffffffffffffffffffffffffff1690602001909291905050506106c4565b6040518082815260200191505060405180910390f35b3480156101c157600080fd5b506101ee600480360360208110156101d857600080fd5b81019080803590602001909291905050506106dc565b60405180878152602001806020018681526020018573ffffffffffffffffffffffffffffffffffffffff1673ffffffffffffffffffffffffffffffffffffffff168152602001848152602001838152602001828103825287818151815260200191508051906020019080838360005b8381101561027857808201518184015260208101905061025d565b50505050905090810190601f1680156102a55780820380516001836020036101000a031916815260200191505b5097505050505050505060405180910390f35b3480156102c457600080fd5b50610388600480360360408110156102db57600080fd5b81019080803590602001906401000000008111156102f857600080fd5b82018360208201111561030a57600080fd5b8035906020019184600183028401116401000000008311171561032c57600080fd5b91908080601f016020809104026020016040519081016040528093929190818152602001838380828437600081840152601f19601f820116905080830192505050505050509192919290803590602001909291905050506108a0565b6040518082815260200191505060405180910390f35b3480156103aa57600080fd5b506103d7600480360360208110156103c157600080fd5b81019080803590602001909291905050506108b5565b604051808973ffffffffffffffffffffffffffffffffffffffff1673ffffffffffffffffffffffffffffffffffffffff16815260200180602001888152602001878152602001868152602001858152602001848152602001838152602001828103825289818151815260200191508051906020019080838360005b8381101561046d578082015181840152602081019050610452565b50505050905090810190601f16801561049a5780820380516001836020036101000a031916815260200191505b50995050505050505050505060405180910390f35b3480156104bb57600080fd5b506104c46109c4565b60405180878152602001806020018681526020018573ffffffffffffffffffffffffffffffffffffffff1673ffffffffffffffffffffffffffffffffffffffff168152602001848152602001838152602001828103825287818151815260200191508051906020019080838360005b8381101561054e578082015181840152602081019050610533565b50505050905090810190601f16801561057b5780820380516001836020036101000a031916815260200191505b5097505050505050505060405180910390f35b6000600180549050905090565b6000806000803373ffffffffffffffffffffffffffffffffffffffff1673ffffffffffffffffffffffffffffffffffffffff168152602001908152602001600020541415905090565b60006105ee61059b565b15156105f957600080fd5b60008060003373ffffffffffffffffffffffffffffffffffffffff1673ffffffffffffffffffffffffffffffffffffffff168152602001908152602001600020549050600060018281548110151561064d57fe5b906000526020600020906008020190508581600301819055508481600401819055508381600501819055504281600701819055507f987ab5be4814d1db1876e1951353332054d3ee0e705aaf97b353c22a702840eb826040518082815260200191505060405180910390a181925050509392505050565b60006020528060005260406000206000915090505481565b6000606060008060008060008711806106fa57506001805490508711155b151561070557600080fd5b61070d610c4c565b60018881548110151561071c57fe5b906000526020600020906008020161010060405190810160405290816000820160009054906101000a900473ffffffffffffffffffffffffffffffffffffffff1673ffffffffffffffffffffffffffffffffffffffff1673ffffffffffffffffffffffffffffffffffffffff168152602001600182018054600181600116156101000203166002900480601f0160208091040260200160405190810160405280929190818152602001828054600181600116156101000203166002900480156108265780601f106107fb57610100808354040283529160200191610826565b820191906000526020600020905b81548152906001019060200180831161080957829003601f168201915b5050505050815260200160028201548152602001600382015481526020016004820154815260200160058201548152602001600682015481526020016007820154815250509050878160200151826040015183600001518460c001518560e001518494509650965096509650965096505091939550919395565b60006108ad338484610a42565b905092915050565b6001818154811015156108c457fe5b90600052602060002090600802016000915090508060000160009054906101000a900473ffffffffffffffffffffffffffffffffffffffff1690806001018054600181600116156101000203166002900480601f0160208091040260200160405190810160405280929190818152602001828054600181600116156101000203166002900480156109965780601f1061096b57610100808354040283529160200191610996565b820191906000526020600020905b81548152906001019060200180831161097957829003601f168201915b5050505050908060020154908060030154908060040154908060050154908060060154908060070154905088565b600060606000806000806109d661059b565b15156109e157600080fd5b60008060003373ffffffffffffffffffffffffffffffffffffffff1673ffffffffffffffffffffffffffffffffffffffff168152602001908152602001600020549050610a2d816106dc565b96509650965096509650965050909192939495565b6000806000808673ffffffffffffffffffffffffffffffffffffffff1673ffffffffffffffffffffffffffffffffffffffff168152602001908152602001600020549050600081141515610a9557600080fd5b6001805490506000808773ffffffffffffffffffffffffffffffffffffffff1673ffffffffffffffffffffffffffffffffffffffff16815260200190815260200160002081905550600060018054809190600101610af39190610cab565b9050610100604051908101604052808773ffffffffffffffffffffffffffffffffffffffff16815260200186815260200185815260200160008152602001600081526020016000815260200142815260200142815250600182815481101515610b5857fe5b906000526020600020906008020160008201518160000160006101000a81548173ffffffffffffffffffffffffffffffffffffffff021916908373ffffffffffffffffffffffffffffffffffffffff1602179055506020820151816001019080519060200190610bc9929190610cdd565b5060408201518160020155606082015181600301556080820151816004015560a0820151816005015560c0820151816006015560e082015181600701559050507f56ee9ac180e8be7a2f9c9788403247e268158e3fee1a11ed46a1d3326f7cd919816040518082815260200191505060405180910390a180925050509392505050565b61010060405190810160405280600073ffffffffffffffffffffffffffffffffffffffff168152602001606081526020016000801916815260200160008152602001600081526020016000815260200160008152602001600081525090565b815481835581811115610cd857600802816008028360005260206000209182019101610cd79190610d5d565b5b505050565b828054600181600116156101000203166002900490600052602060002090601f016020900481019282601f10610d1e57805160ff1916838001178555610d4c565b82800160010185558215610d4c579182015b82811115610d4b578251825591602001919060010190610d30565b5b509050610d599190610de3565b5090565b610de091905b80821115610ddc57600080820160006101000a81549073ffffffffffffffffffffffffffffffffffffffff0219169055600182016000610da39190610e08565b60028201600090556003820160009055600482016000905560058201600090556006820160009055600782016000905550600801610d63565b5090565b90565b610e0591905b80821115610e01576000816000905550600101610de9565b5090565b90565b50805460018160011615610100020316600290046000825580601f10610e2e5750610e4d565b601f016020900490600052602060002090810190610e4c9190610de3565b5b5056fea165627a7a7230582089c51448ca06b21c20b92276eb33fbe06795557b36ba3b6bd9c56dce85108c5c0029",
  "source": "// We will be using Solidity version 0.5.4\npragma solidity ^0.5.0;\n\n// Importing OpenZeppelin's SafeMath Implementation\n//import 'https://github.com/OpenZeppelin/openzeppelin-solidity/blob/master/contracts/math/SafeMath.sol';\n//import \"installed_contracts/zeppelin/contracts/math/Math.sol\";\n\ncontract Cars {\n    //using SafeMath for uint256;\n\n    // data structure that stores a car\n    struct Car {\n        address ownerAddress;  //owned by owner, assuming owner also driver. \n        string vinNum;\n        bytes32 status;\n        \n        //given by oracle later. \n        uint    manufacturedYear;\n        uint    startMilage;\n        uint    currentMilage;\n        \n        uint createdAt;\n        uint updatedAt;\n        //TODO: add IPFS car profile hash later. \n    }\n\n    // it maps the car's wallet address with the car ID\n    mapping (address => uint) public carsIds;\n\n    // Array of Car that holds the list of cars and their details\n    Car[] public cars;\n\n    // event fired when an car is registered\n    event newCarRegistered(uint id);\n\n    // event fired when the car updates his status or name\n    event carUpdateEvent(uint id);\n\n\n    // Modifier: check if the caller of the smart contract is registered\n    modifier checkSenderIsRegistered {\n    \trequire(isRegistered());\n    \t_;\n    }\n\n\n    /**\n     * Constructor function\n     */\n    constructor() public {\n        // NOTE: the first car MUST be emtpy\n        addCar(0x0000000000000000000000000000000000000000, \"\", \"\");\n\n        // Some dummy data\n        addCar(0x3333333333333333333333333333333333333333, \"V1234556\", \"Status1\");\n        addCar(0x1111111111111111111111111111111111111111, \"V1234557\", \"Status1\");\n        addCar(0x2222222222222222222222222222222222222222, \"V1234558\", \"Status1\");\n    }\n\n\n    /**\n     * Function to register a new car.\n     *\n     * @param vinNum \t\tThe displaying name\n     * @param status        The status of the car\n     */\n    function registerCar(string memory vinNum, bytes32 status) public\n    returns(uint)\n    {\n    \treturn addCar(msg.sender, vinNum, status);\n    }\n\n\n    /**\n     * Add a new car. This function must be private because an car\n     * cannot insert another car on behalf of someone else.\n     *\n     * @param wAddr \t\tAddress wallet of the car\n     * @param vinNum\t\tDisplaying name of the car\n     * @param status    \tStatus of the car\n     */\n    function addCar(address wAddr, string memory vinNum, bytes32 status) private\n    returns(uint)\n    {\n        // checking if the car is already registered\n        uint carId = carsIds[wAddr];\n        require (carId == 0);\n\n        // associating the car wallet address with the new ID\n        carsIds[wAddr] = cars.length;\n        uint newCarId = cars.length++;\n\n        // storing the new car details\n        cars[newCarId] = Car({\n        \townerAddress: wAddr,\n            vinNum: vinNum,\n        \tstatus: status,\n            manufacturedYear: 0,\n            startMilage: 0,\n            currentMilage: 0,\n        \tcreatedAt: now,\n        \tupdatedAt: now\n        });\n\n        // emitting the event that a new car has been registered\n        emit newCarRegistered(newCarId);\n\n        return newCarId;\n    }\n\n    /**\n     * Update the car profile of the caller of this method.\n     * Note: the car can modify only his own profile.\n     * Need less than 4 params, otherwise, get warning. \n     * @param manufacturedYear \tThe car's manufacturedYear\n     * @param startMilage \t    The car's startMilage\n     * @param currentMilage \tThe car's currentMilage\n     */\n    function updateCar(uint manufacturedYear, uint startMilage, uint currentMilage) checkSenderIsRegistered public \n    returns(uint)\n    {\n    \t// An car can modify only his own profile.\n    \tuint carId = carsIds[msg.sender];\n\n    \tCar storage car = cars[carId];\n        /* TODO: need validation\n            string memory carVinNum = car.vinNum;\n            require(carVinNum == vinNum);\n        */\n\n    \tcar.manufacturedYear = manufacturedYear;\n    \tcar.startMilage = startMilage;\n        car.currentMilage = currentMilage;\n\n    \tcar.updatedAt = now;\n\n    \temit carUpdateEvent(carId);\n\n    \treturn carId;\n    }\n\n\n    /**\n     * Get the car's profile information.\n     *\n     * @param id \tThe ID of the car stored on the blockchain.\n     */\n    function getCarById(uint id) public view\n    returns(\n    \tuint,\n    \tstring memory,\n    \tbytes32,\n    \taddress,\n    \tuint,\n    \tuint\n    ) {\n    \t// checking if the ID is valid\n    \trequire( (id > 0) || (id <= cars.length) );\n\n    \tCar memory i = cars[id];\n\n    \treturn (\n    \t\tid,\n    \t\ti.vinNum,\n    \t\ti.status,\n    \t\ti.ownerAddress,\n    \t\ti.createdAt,\n    \t\ti.updatedAt\n    \t);\n    }\n\n\n    /**\n     * Return the profile information of the caller.\n     */\n    function getOwnProfile() checkSenderIsRegistered public view\n    returns(\n    \tuint,\n    \tstring memory,\n    \tbytes32,\n    \taddress,\n    \tuint,\n    \tuint\n    ) {\n    \tuint id = carsIds[msg.sender];\n\n    \treturn getCarById(id);\n    }\n\n\n    /**\n     * Check if the car that is calling the smart contract is registered.\n     */\n    function isRegistered() public view returns (bool)\n    {\n    \treturn (carsIds[msg.sender] != 0);\n    }\n\n\n    /**\n     * Return the number of total registered cars.\n     */\n    function totalCars() public view returns (uint)\n    {\n        return cars.length;\n    }\n\n}",
  "sourcePath": "/Users/vivi/Documents/Programming/learning/ethereum/contract-reSure/contracts/Car.sol",
  "compiler": {
    "name": "solc",
    "version": "0.5.0+commit.1d4f565a.Emscripten.clang"
  },
  "schemaVersion": "3.0.6",
  "updatedAt": "2019-04-07T07:29:02.426Z",
  "devdoc": {
    "methods": {
      "getCarById(uint256)": {
        "params": {
          "id": "The ID of the car stored on the blockchain."
        }
      },
      "registerCar(string,bytes32)": {
        "params": {
          "status": "The status of the car",
          "vinNum": "The displaying name"
        }
      },
      "updateCar(uint256,uint256,uint256)": {
        "params": {
          "currentMilage": "The car's currentMilage",
          "manufacturedYear": "The car's manufacturedYear",
          "startMilage": "The car's startMilage"
        }
      }
    }
  },
  "userdoc": {
    "methods": {
      "constructor": "Constructor function",
      "getCarById(uint256)": {
        "notice": "Get the car's profile information."
      },
      "getOwnProfile()": {
        "notice": "Return the profile information of the caller."
      },
      "isRegistered()": {
        "notice": "Check if the car that is calling the smart contract is registered."
      },
      "registerCar(string,bytes32)": {
        "notice": "Function to register a new car."
      },
      "totalCars()": {
        "notice": "Return the number of total registered cars."
      },
      "updateCar(uint256,uint256,uint256)": {
        "notice": "Update the car profile of the caller of this method. Note: the car can modify only his own profile. Need less than 4 params, otherwise, get warning. "
      }
    }
  }
}