{
  "contractName": "PayPerUses",
  "abi": [
    {
      "constant": true,
      "inputs": [
        {
          "name": "",
          "type": "address"
        }
      ],
      "name": "optionIds",
      "outputs": [
        {
          "name": "",
          "type": "uint256"
        }
      ],
      "payable": false,
      "stateMutability": "view",
      "type": "function"
    },
    {
      "constant": true,
      "inputs": [
        {
          "name": "",
          "type": "uint256"
        }
      ],
      "name": "options",
      "outputs": [
        {
          "name": "userCarAddress",
          "type": "address"
        },
        {
          "name": "issuerAddress",
          "type": "address"
        },
        {
          "name": "offerRate",
          "type": "uint256"
        },
        {
          "name": "acceptRate",
          "type": "uint256"
        },
        {
          "name": "rewardBalance",
          "type": "uint256"
        },
        {
          "name": "offeredAt",
          "type": "uint256"
        },
        {
          "name": "acceptedAt",
          "type": "uint256"
        },
        {
          "name": "rewardIssuedAt",
          "type": "uint256"
        },
        {
          "name": "updatedAt",
          "type": "uint256"
        },
        {
          "name": "status",
          "type": "string"
        }
      ],
      "payable": false,
      "stateMutability": "view",
      "type": "function"
    },
    {
      "inputs": [],
      "payable": false,
      "stateMutability": "nonpayable",
      "type": "constructor"
    },
    {
      "anonymous": false,
      "inputs": [
        {
          "indexed": false,
          "name": "id",
          "type": "uint256"
        }
      ],
      "name": "optionOffered",
      "type": "event"
    },
    {
      "anonymous": false,
      "inputs": [
        {
          "indexed": false,
          "name": "id",
          "type": "uint256"
        }
      ],
      "name": "optionAccepted",
      "type": "event"
    },
    {
      "anonymous": false,
      "inputs": [
        {
          "indexed": false,
          "name": "id",
          "type": "uint256"
        }
      ],
      "name": "rewardIssued",
      "type": "event"
    },
    {
      "constant": true,
      "inputs": [],
      "name": "isRegistered",
      "outputs": [
        {
          "name": "",
          "type": "bool"
        }
      ],
      "payable": false,
      "stateMutability": "view",
      "type": "function"
    },
    {
      "constant": false,
      "inputs": [
        {
          "name": "userCarAddress",
          "type": "address"
        },
        {
          "name": "offerRate",
          "type": "uint256"
        }
      ],
      "name": "offerOption",
      "outputs": [
        {
          "name": "",
          "type": "uint256"
        }
      ],
      "payable": false,
      "stateMutability": "nonpayable",
      "type": "function"
    },
    {
      "constant": false,
      "inputs": [
        {
          "name": "issuerAddress",
          "type": "address"
        }
      ],
      "name": "acceptOption",
      "outputs": [
        {
          "name": "",
          "type": "uint256"
        }
      ],
      "payable": false,
      "stateMutability": "nonpayable",
      "type": "function"
    },
    {
      "constant": false,
      "inputs": [
        {
          "name": "userCarAddress",
          "type": "address"
        },
        {
          "name": "newBalance",
          "type": "uint256"
        }
      ],
      "name": "issueRewards",
      "outputs": [
        {
          "name": "",
          "type": "uint256"
        }
      ],
      "payable": false,
      "stateMutability": "nonpayable",
      "type": "function"
    },
    {
      "constant": true,
      "inputs": [],
      "name": "totalOptions",
      "outputs": [
        {
          "name": "",
          "type": "uint256"
        }
      ],
      "payable": false,
      "stateMutability": "view",
      "type": "function"
    },
    {
      "constant": true,
      "inputs": [
        {
          "name": "userCarAddress",
          "type": "address"
        }
      ],
      "name": "getOption",
      "outputs": [
        {
          "name": "",
          "type": "address"
        },
        {
          "name": "",
          "type": "address"
        },
        {
          "name": "",
          "type": "uint256"
        },
        {
          "name": "",
          "type": "uint256"
        },
        {
          "name": "",
          "type": "uint256"
        },
        {
          "name": "",
          "type": "uint256"
        },
        {
          "name": "",
          "type": "uint256"
        },
        {
          "name": "",
          "type": "uint256"
        },
        {
          "name": "",
          "type": "uint256"
        }
      ],
      "payable": false,
      "stateMutability": "view",
      "type": "function"
    }
  ],
  "bytecode": "0x608060405234801561001057600080fd5b50610eea806100206000396000f3fe60806040526004361061008e576000357c0100000000000000000000000000000000000000000000000000000000900463ffffffff1680630d11f8141461009357806322366844146100f85780632c61fb1514610127578063409e22051461021c57806344d9cdf914610367578063b3543889146103d6578063e422a3a914610401578063e47a966a14610466575b600080fd5b34801561009f57600080fd5b506100e2600480360360208110156100b657600080fd5b81019080803573ffffffffffffffffffffffffffffffffffffffff1690602001909291905050506104d5565b6040518082815260200191505060405180910390f35b34801561010457600080fd5b5061010d6104ed565b604051808215151515815260200191505060405180910390f35b34801561013357600080fd5b506101766004803603602081101561014a57600080fd5b81019080803573ffffffffffffffffffffffffffffffffffffffff169060200190929190505050610536565b604051808a73ffffffffffffffffffffffffffffffffffffffff1673ffffffffffffffffffffffffffffffffffffffff1681526020018973ffffffffffffffffffffffffffffffffffffffff1673ffffffffffffffffffffffffffffffffffffffff168152602001888152602001878152602001868152602001858152602001848152602001838152602001828152602001995050505050505050505060405180910390f35b34801561022857600080fd5b506102556004803603602081101561023f57600080fd5b8101908080359060200190929190505050610635565b604051808b73ffffffffffffffffffffffffffffffffffffffff1673ffffffffffffffffffffffffffffffffffffffff1681526020018a73ffffffffffffffffffffffffffffffffffffffff1673ffffffffffffffffffffffffffffffffffffffff16815260200189815260200188815260200187815260200186815260200185815260200184815260200183815260200180602001828103825283818151815260200191508051906020019080838360005b83811015610323578082015181840152602081019050610308565b50505050905090810190601f1680156103505780820380516001836020036101000a031916815260200191505b509b50505050505050505050505060405180910390f35b34801561037357600080fd5b506103c06004803603604081101561038a57600080fd5b81019080803573ffffffffffffffffffffffffffffffffffffffff16906020019092919080359060200190929190505050610770565b6040518082815260200191505060405180910390f35b3480156103e257600080fd5b506103eb610785565b6040518082815260200191505060405180910390f35b34801561040d57600080fd5b506104506004803603602081101561042457600080fd5b81019080803573ffffffffffffffffffffffffffffffffffffffff169060200190929190505050610792565b6040518082815260200191505060405180910390f35b34801561047257600080fd5b506104bf6004803603604081101561048957600080fd5b81019080803573ffffffffffffffffffffffffffffffffffffffff169060200190929190803590602001909291905050506108a5565b6040518082815260200191505060405180910390f35b60006020528060005260406000206000915090505481565b6000806000803373ffffffffffffffffffffffffffffffffffffffff1673ffffffffffffffffffffffffffffffffffffffff168152602001908152602001600020541415905090565b6000806000806000806000806000806000808c73ffffffffffffffffffffffffffffffffffffffff1673ffffffffffffffffffffffffffffffffffffffff168152602001908152602001600020549050600060018281548110151561059757fe5b90600052602060002090600a020190508060000160009054906101000a900473ffffffffffffffffffffffffffffffffffffffff168160010160009054906101000a900473ffffffffffffffffffffffffffffffffffffffff1682600201548360030154846004015485600501548660060154876007015488600801549a509a509a509a509a509a509a509a509a5050509193959799909294969850565b60018181548110151561064457fe5b90600052602060002090600a02016000915090508060000160009054906101000a900473ffffffffffffffffffffffffffffffffffffffff16908060010160009054906101000a900473ffffffffffffffffffffffffffffffffffffffff1690806002015490806003015490806004015490806005015490806006015490806007015490806008015490806009018054600181600116156101000203166002900480601f0160208091040260200160405190810160405280929190818152602001828054600181600116156101000203166002900480156107665780601f1061073b57610100808354040283529160200191610766565b820191906000526020600020905b81548152906001019060200180831161074957829003601f168201915b505050505090508a565b600061077d8333846109b5565b905092915050565b6000600180549050905090565b6000806000803373ffffffffffffffffffffffffffffffffffffffff1673ffffffffffffffffffffffffffffffffffffffff16815260200190815260200160002054905060006001828154811015156107e757fe5b90600052602060002090600a02019050806002015481600301819055504281600601819055504281600801819055506040805190810160405280600e81526020017f616363657074206f666665726564000000000000000000000000000000000000815250816009019080519060200190610863929190610c6a565b507f4f6bdaea5a579df309e3976dbb6857be72d76b5e89897a3651f85b4e37468372826040518082815260200191505060405180910390a18192505050919050565b6000806000808573ffffffffffffffffffffffffffffffffffffffff1673ffffffffffffffffffffffffffffffffffffffff16815260200190815260200160002054905060006001828154811015156108fa57fe5b90600052602060002090600a020190508381600401819055504281600701819055504281600801819055506040805190810160405280600d81526020017f7265776172642069737375656400000000000000000000000000000000000000815250816009019080519060200190610972929190610c6a565b507fde9197208596c00a0f15a2016fa99c09f50d742fe2d4618131142f504f6dcba0826040518082815260200191505060405180910390a1819250505092915050565b6000806000808673ffffffffffffffffffffffffffffffffffffffff1673ffffffffffffffffffffffffffffffffffffffff168152602001908152602001600020549050600081141515610a0857600080fd5b6001805490506000808773ffffffffffffffffffffffffffffffffffffffff1673ffffffffffffffffffffffffffffffffffffffff16815260200190815260200160002081905550600060018054809190600101610a669190610cea565b9050610140604051908101604052808773ffffffffffffffffffffffffffffffffffffffff1681526020018673ffffffffffffffffffffffffffffffffffffffff168152602001858152602001600081526020016000815260200142815260200160008152602001600081526020014281526020016040805190810160405280600c81526020017f72617465206f6666657265640000000000000000000000000000000000000000815250815250600182815481101515610b2357fe5b90600052602060002090600a020160008201518160000160006101000a81548173ffffffffffffffffffffffffffffffffffffffff021916908373ffffffffffffffffffffffffffffffffffffffff16021790555060208201518160010160006101000a81548173ffffffffffffffffffffffffffffffffffffffff021916908373ffffffffffffffffffffffffffffffffffffffff16021790555060408201518160020155606082015181600301556080820151816004015560a0820151816005015560c0820151816006015560e082015181600701556101008201518160080155610120820151816009019080519060200190610c23929190610d1c565b509050507fee939195a3c0942a138988850d43a8175dc37da47f2b640faabb63a1b1c7d8bc816040518082815260200191505060405180910390a180925050509392505050565b828054600181600116156101000203166002900490600052602060002090601f016020900481019282601f10610cab57805160ff1916838001178555610cd9565b82800160010185558215610cd9579182015b82811115610cd8578251825591602001919060010190610cbd565b5b509050610ce69190610d9c565b5090565b815481835581811115610d1757600a0281600a028360005260206000209182019101610d169190610dc1565b5b505050565b828054600181600116156101000203166002900490600052602060002090601f016020900481019282601f10610d5d57805160ff1916838001178555610d8b565b82800160010185558215610d8b579182015b82811115610d8a578251825591602001919060010190610d6f565b5b509050610d989190610d9c565b5090565b610dbe91905b80821115610dba576000816000905550600101610da2565b5090565b90565b610e7391905b80821115610e6f57600080820160006101000a81549073ffffffffffffffffffffffffffffffffffffffff02191690556001820160006101000a81549073ffffffffffffffffffffffffffffffffffffffff02191690556002820160009055600382016000905560048201600090556005820160009055600682016000905560078201600090556008820160009055600982016000610e669190610e76565b50600a01610dc7565b5090565b90565b50805460018160011615610100020316600290046000825580601f10610e9c5750610ebb565b601f016020900490600052602060002090810190610eba9190610d9c565b5b5056fea165627a7a723058207b5b84d3b86fa4021b72bc9a95124ed72e145aaea9e5afc3a586d537fa94ff020029",
  "source": "// We will be using Solidity version 0.5.4\n//pragma solidity ^0.4.25;\npragma solidity ^0.5.0;\n\n// Importing OpenZeppelin's SafeMath Implementation\n//import 'https://github.com/OpenZeppelin/openzeppelin-solidity/blob/master/contracts/math/SafeMath.sol';\n//import \"installed_contracts/zeppelin/contracts/math/Math.sol\";\n\ncontract PayPerUses {\n    //using SafeMath for uint256;\n\n    struct PayPerUse {\n        address userCarAddress;       //address to get user car profile \n        address issuerAddress;        //simply to be 1 issuer right now. \n        uint    offerRate; \n\n        uint    acceptRate;  \n        uint    rewardBalance;        //reward balance\n        uint    offeredAt;\n        uint    acceptedAt; \n        uint    rewardIssuedAt;\n        uint    updatedAt;\n\n        string  status;  //rate offered, accepted, reward issued;\n    }\n\n   // Structure\n   mapping (address => uint) public optionIds;  //user --> option\n   PayPerUse[] public options;\n\n    // important events\n    event optionOffered(uint id);\n    event optionAccepted(uint id);\n    event rewardIssued(uint id);\n\n\n    // Modifier: check if the caller of the smart contract is registered\n    modifier checkSenderIsRegistered {\n    \trequire(isRegistered());\n    \t_;\n    }\n   \n    //******************************************************************************\n   /**\n     * Constructor function\n     */\n    constructor() public {\n    }\n\n     /**\n     * Check if the car that is calling the smart contract is registered.\n     */\n    function isRegistered() public view returns (bool)\n    {\n    \treturn (optionIds[msg.sender] != 0);\n    }\n\n    /**\n     * As issuer, call this function to setup offer (sender=issuer)\n     *\n     * @param userCarAddress     user card address\t\n     * @param offerRate         offer rate\n     */\n    function offerOption(address userCarAddress, uint offerRate) public\n    returns(uint)\n    {\n    \treturn addOption(userCarAddress, msg.sender, offerRate);\n    }\n\n\n    /**\n     * Add a new car. This function must be private because an car\n     * cannot insert another car on behalf of someone else.\n     *\n     * @param userCarAddress   user car address\t\t\n     * @param issuerAddress     issuer address\t\n     * @param offerRate         offer rate  \n     */\n    function addOption(address userCarAddress, address issuerAddress, uint offerRate) private\n    returns(uint)\n    {\n        // checking if option is already there. \n        uint optionId = optionIds[userCarAddress];\n        require (optionId == 0);\n\n        // associating the car wallet address with the new ID\n        optionIds[userCarAddress] = options.length;\n        uint newOptionId = options.length++;\n\n        // storing the new car details\n        options[newOptionId] = PayPerUse({\n        \tuserCarAddress: userCarAddress,\n            issuerAddress: issuerAddress,\n            offerRate: offerRate,\n            acceptRate: 0,\n            rewardBalance: 0,\n        \tofferedAt: now,\n            acceptedAt: 0,\n            rewardIssuedAt: 0,\n        \tupdatedAt: now,\n            status: \"rate offered\"\n        });\n\n\n        // emitting the event that a new car has been registered\n        emit optionOffered(newOptionId);\n\n        return newOptionId;\n    }\n\n  /**\n     * Driver (Sender) accept option. \n     *\n     * @param issuerAddress     issuer address\t\n     */\n    function acceptOption(address issuerAddress) public\n    returns(uint)\n    {\n         uint optionId = optionIds[msg.sender];\n         PayPerUse storage perPerUse = options[optionId];\n         \n         perPerUse.acceptRate = perPerUse.offerRate;\n         perPerUse.acceptedAt = now;\n    \t perPerUse.updatedAt = now;\n         perPerUse.status = \"accept offered\";\n\n    \temit optionAccepted(optionId);\n\n    \treturn optionId;\n    }\n\n    /**\n     * Issuer (Sender) issue rewards. \n     *\n     * @param userCarAddress    user address\n     * @param newBalance        balance\n     */\n    function issueRewards(address userCarAddress, uint newBalance) public\n    returns(uint)\n    {\n        uint optionId = optionIds[userCarAddress];\n        PayPerUse storage perPerUse = options[optionId];\n         \n        perPerUse.rewardBalance = newBalance;\n        perPerUse.rewardIssuedAt = now;\n    \tperPerUse.updatedAt = now;\n        perPerUse.status = \"reward issued\";\n\n    \temit rewardIssued(optionId);\n\n    \treturn optionId;\n    }\n\n    /**\n     * Return the number of total registered cars.\n     */\n    function totalOptions() public view returns (uint)\n    {\n        return options.length;\n    }\n\n     /**\n     * Return the profile information of the caller.\n     */\n    function getOption(address userCarAddress) public view\n    returns(\n        address,\n    \taddress,\n    \tuint,\n    \tuint,\n    \tuint,\n        uint,\n    \tuint,\n    \tuint,\n        uint\n    ) {\n    \tuint optionId = optionIds[userCarAddress];\n        PayPerUse storage perPerUse = options[optionId];\n         \n    \treturn (\n    \t    perPerUse.userCarAddress,\n            \n    \t\tperPerUse.issuerAddress,\n    \t\tperPerUse.offerRate,\n    \t\tperPerUse.acceptRate,\n    \t\tperPerUse.rewardBalance,\n    \t\tperPerUse.offeredAt,\n            perPerUse.acceptedAt,\n            perPerUse.rewardIssuedAt,\n            perPerUse.updatedAt\n    \t);\n    }\n\n}",
  "sourcePath": "/Users/vivi/Documents/Programming/learning/ethereum/contract-reSure/contracts/PayPerUse.sol",
  "compiler": {
    "name": "solc",
    "version": "0.5.0+commit.1d4f565a.Emscripten.clang"
  },
  "schemaVersion": "3.0.6",
  "updatedAt": "2019-04-07T08:34:06.287Z",
  "devdoc": {
    "methods": {
      "acceptOption(address)": {
        "params": {
          "issuerAddress": "issuer address\t"
        }
      },
      "issueRewards(address,uint256)": {
        "params": {
          "newBalance": "balance",
          "userCarAddress": "user address"
        }
      },
      "offerOption(address,uint256)": {
        "params": {
          "offerRate": "offer rate",
          "userCarAddress": "user card address\t"
        }
      }
    }
  },
  "userdoc": {
    "methods": {
      "acceptOption(address)": {
        "notice": "Driver (Sender) accept option. "
      },
      "constructor": "Constructor function",
      "getOption(address)": {
        "notice": "Return the profile information of the caller."
      },
      "isRegistered()": {
        "notice": "Check if the car that is calling the smart contract is registered."
      },
      "issueRewards(address,uint256)": {
        "notice": "Issuer (Sender) issue rewards. "
      },
      "offerOption(address,uint256)": {
        "notice": "As issuer, call this function to setup offer (sender=issuer)"
      },
      "totalOptions()": {
        "notice": "Return the number of total registered cars."
      }
    }
  }
}